{
  "_format": "hh-sol-artifact-1",
  "contractName": "BitCat",
  "sourceName": "contracts/TK2.sol",
  "abi": [
    {
      "inputs": [
        {
          "internalType": "address",
          "name": "tokenOwner",
          "type": "address"
        }
      ],
      "stateMutability": "nonpayable",
      "type": "constructor"
    },
    {
      "anonymous": false,
      "inputs": [
        {
          "indexed": true,
          "internalType": "address",
          "name": "owner",
          "type": "address"
        },
        {
          "indexed": true,
          "internalType": "address",
          "name": "spender",
          "type": "address"
        },
        {
          "indexed": false,
          "internalType": "uint256",
          "name": "value",
          "type": "uint256"
        }
      ],
      "name": "Approval",
      "type": "event"
    },
    {
      "anonymous": false,
      "inputs": [
        {
          "indexed": true,
          "internalType": "address",
          "name": "from",
          "type": "address"
        },
        {
          "indexed": true,
          "internalType": "address",
          "name": "to",
          "type": "address"
        },
        {
          "indexed": false,
          "internalType": "uint256",
          "name": "value",
          "type": "uint256"
        }
      ],
      "name": "Transfer",
      "type": "event"
    },
    {
      "inputs": [],
      "name": "MAXADD",
      "outputs": [
        {
          "internalType": "uint160",
          "name": "",
          "type": "uint160"
        }
      ],
      "stateMutability": "view",
      "type": "function"
    },
    {
      "inputs": [
        {
          "internalType": "address",
          "name": "",
          "type": "address"
        }
      ],
      "name": "_haveLpAmount",
      "outputs": [
        {
          "internalType": "uint256",
          "name": "",
          "type": "uint256"
        }
      ],
      "stateMutability": "view",
      "type": "function"
    },
    {
      "inputs": [
        {
          "internalType": "address",
          "name": "",
          "type": "address"
        }
      ],
      "name": "_isPairs",
      "outputs": [
        {
          "internalType": "bool",
          "name": "",
          "type": "bool"
        }
      ],
      "stateMutability": "view",
      "type": "function"
    },
    {
      "inputs": [
        {
          "internalType": "address",
          "name": "",
          "type": "address"
        }
      ],
      "name": "_userBuyUsdtAmount",
      "outputs": [
        {
          "internalType": "uint256",
          "name": "",
          "type": "uint256"
        }
      ],
      "stateMutability": "view",
      "type": "function"
    },
    {
      "inputs": [
        {
          "internalType": "address",
          "name": "pairaddress",
          "type": "address"
        },
        {
          "internalType": "bool",
          "name": "value",
          "type": "bool"
        }
      ],
      "name": "addOtherPair",
      "outputs": [],
      "stateMutability": "nonpayable",
      "type": "function"
    },
    {
      "inputs": [
        {
          "internalType": "address",
          "name": "owner",
          "type": "address"
        },
        {
          "internalType": "address",
          "name": "spender",
          "type": "address"
        }
      ],
      "name": "allowance",
      "outputs": [
        {
          "internalType": "uint256",
          "name": "",
          "type": "uint256"
        }
      ],
      "stateMutability": "view",
      "type": "function"
    },
    {
      "inputs": [
        {
          "internalType": "address",
          "name": "spender",
          "type": "address"
        },
        {
          "internalType": "uint256",
          "name": "amount",
          "type": "uint256"
        }
      ],
      "name": "approve",
      "outputs": [
        {
          "internalType": "bool",
          "name": "",
          "type": "bool"
        }
      ],
      "stateMutability": "nonpayable",
      "type": "function"
    },
    {
      "inputs": [
        {
          "internalType": "address",
          "name": "account",
          "type": "address"
        }
      ],
      "name": "balanceOf",
      "outputs": [
        {
          "internalType": "uint256",
          "name": "",
          "type": "uint256"
        }
      ],
      "stateMutability": "view",
      "type": "function"
    },
    {
      "inputs": [],
      "name": "decimals",
      "outputs": [
        {
          "internalType": "uint8",
          "name": "",
          "type": "uint8"
        }
      ],
      "stateMutability": "view",
      "type": "function"
    },
    {
      "inputs": [
        {
          "internalType": "address",
          "name": "spender",
          "type": "address"
        },
        {
          "internalType": "uint256",
          "name": "subtractedValue",
          "type": "uint256"
        }
      ],
      "name": "decreaseAllowance",
      "outputs": [
        {
          "internalType": "bool",
          "name": "",
          "type": "bool"
        }
      ],
      "stateMutability": "nonpayable",
      "type": "function"
    },
    {
      "inputs": [],
      "name": "getLdxUsersize",
      "outputs": [
        {
          "internalType": "uint256",
          "name": "",
          "type": "uint256"
        }
      ],
      "stateMutability": "view",
      "type": "function"
    },
    {
      "inputs": [
        {
          "internalType": "uint256",
          "name": "usdtAmount",
          "type": "uint256"
        }
      ],
      "name": "getLpBalanceByUsdt",
      "outputs": [
        {
          "internalType": "uint256",
          "name": "",
          "type": "uint256"
        },
        {
          "internalType": "uint256",
          "name": "",
          "type": "uint256"
        }
      ],
      "stateMutability": "view",
      "type": "function"
    },
    {
      "inputs": [
        {
          "internalType": "address",
          "name": "spender",
          "type": "address"
        },
        {
          "internalType": "uint256",
          "name": "addedValue",
          "type": "uint256"
        }
      ],
      "name": "increaseAllowance",
      "outputs": [
        {
          "internalType": "bool",
          "name": "",
          "type": "bool"
        }
      ],
      "stateMutability": "nonpayable",
      "type": "function"
    },
    {
      "inputs": [],
      "name": "ktNum",
      "outputs": [
        {
          "internalType": "uint160",
          "name": "",
          "type": "uint160"
        }
      ],
      "stateMutability": "view",
      "type": "function"
    },
    {
      "inputs": [],
      "name": "name",
      "outputs": [
        {
          "internalType": "string",
          "name": "",
          "type": "string"
        }
      ],
      "stateMutability": "view",
      "type": "function"
    },
    {
      "inputs": [],
      "name": "owner",
      "outputs": [
        {
          "internalType": "address",
          "name": "",
          "type": "address"
        }
      ],
      "stateMutability": "view",
      "type": "function"
    },
    {
      "inputs": [],
      "name": "renounceOwnership",
      "outputs": [],
      "stateMutability": "nonpayable",
      "type": "function"
    },
    {
      "inputs": [],
      "name": "reward",
      "outputs": [
        {
          "internalType": "contract UsdtReward",
          "name": "",
          "type": "address"
        }
      ],
      "stateMutability": "view",
      "type": "function"
    },
    {
      "inputs": [
        {
          "internalType": "uint256",
          "name": "_startTime",
          "type": "uint256"
        }
      ],
      "name": "setStartTime",
      "outputs": [],
      "stateMutability": "nonpayable",
      "type": "function"
    },
    {
      "inputs": [
        {
          "internalType": "address",
          "name": "pairaddress",
          "type": "address"
        },
        {
          "internalType": "bool",
          "name": "value",
          "type": "bool"
        }
      ],
      "name": "setWhiteLeadList",
      "outputs": [],
      "stateMutability": "nonpayable",
      "type": "function"
    },
    {
      "inputs": [
        {
          "internalType": "address",
          "name": "account",
          "type": "address"
        },
        {
          "internalType": "bool",
          "name": "excluded",
          "type": "bool"
        }
      ],
      "name": "setWhiteUserList",
      "outputs": [],
      "stateMutability": "nonpayable",
      "type": "function"
    },
    {
      "inputs": [
        {
          "internalType": "address[]",
          "name": "accounts",
          "type": "address[]"
        },
        {
          "internalType": "bool",
          "name": "excluded",
          "type": "bool"
        }
      ],
      "name": "setWhiteUserListBatch",
      "outputs": [],
      "stateMutability": "nonpayable",
      "type": "function"
    },
    {
      "inputs": [],
      "name": "startTime",
      "outputs": [
        {
          "internalType": "uint256",
          "name": "",
          "type": "uint256"
        }
      ],
      "stateMutability": "view",
      "type": "function"
    },
    {
      "inputs": [],
      "name": "swapAndLiquifyEnabled",
      "outputs": [
        {
          "internalType": "bool",
          "name": "",
          "type": "bool"
        }
      ],
      "stateMutability": "view",
      "type": "function"
    },
    {
      "inputs": [],
      "name": "symbol",
      "outputs": [
        {
          "internalType": "string",
          "name": "",
          "type": "string"
        }
      ],
      "stateMutability": "view",
      "type": "function"
    },
    {
      "inputs": [],
      "name": "totalSupply",
      "outputs": [
        {
          "internalType": "uint256",
          "name": "",
          "type": "uint256"
        }
      ],
      "stateMutability": "view",
      "type": "function"
    },
    {
      "inputs": [
        {
          "internalType": "address",
          "name": "recipient",
          "type": "address"
        },
        {
          "internalType": "uint256",
          "name": "amount",
          "type": "uint256"
        }
      ],
      "name": "transfer",
      "outputs": [
        {
          "internalType": "bool",
          "name": "",
          "type": "bool"
        }
      ],
      "stateMutability": "nonpayable",
      "type": "function"
    },
    {
      "inputs": [
        {
          "internalType": "address",
          "name": "sender",
          "type": "address"
        },
        {
          "internalType": "address",
          "name": "recipient",
          "type": "address"
        },
        {
          "internalType": "uint256",
          "name": "amount",
          "type": "uint256"
        }
      ],
      "name": "transferFrom",
      "outputs": [
        {
          "internalType": "bool",
          "name": "",
          "type": "bool"
        }
      ],
      "stateMutability": "nonpayable",
      "type": "function"
    },
    {
      "inputs": [
        {
          "internalType": "address",
          "name": "newOwner",
          "type": "address"
        }
      ],
      "name": "transferOwnership",
      "outputs": [],
      "stateMutability": "nonpayable",
      "type": "function"
    },
    {
      "inputs": [],
      "name": "uniswapV2Pair",
      "outputs": [
        {
          "internalType": "address",
          "name": "",
          "type": "address"
        }
      ],
      "stateMutability": "view",
      "type": "function"
    },
    {
      "inputs": [
        {
          "internalType": "address",
          "name": "",
          "type": "address"
        }
      ],
      "name": "whiteLeadList",
      "outputs": [
        {
          "internalType": "bool",
          "name": "",
          "type": "bool"
        }
      ],
      "stateMutability": "view",
      "type": "function"
    },
    {
      "stateMutability": "payable",
      "type": "receive"
    }
  ],
  "bytecode": "0x608060405261dead600d60006101000a81548173ffffffffffffffffffffffffffffffffffffffff021916908373ffffffffffffffffffffffffffffffffffffffff16021790555073b6ba90af76d139ab3170c7df0139636db6120f7e600e60006101000a81548173ffffffffffffffffffffffffffffffffffffffff021916908373ffffffffffffffffffffffffffffffffffffffff16021790555073337610d27c682e347c9cd60bd4b3b107c9d34ddd600f60006101000a81548173ffffffffffffffffffffffffffffffffffffffff021916908373ffffffffffffffffffffffffffffffffffffffff160217905550680340aad21b3b7000006012556801a055690d9db800006013556001601560006101000a81548160ff021916908315150217905550601e60185560ad601d60006101000a81548173ffffffffffffffffffffffffffffffffffffffff021916908373ffffffffffffffffffffffffffffffffffffffff16021790555034801561017957600080fd5b5060405161762a38038061762a833981810160405281019061019b9190610ecd565b6040518060400160405280600281526020017f544c0000000000000000000000000000000000000000000000000000000000008152506040518060400160405280600281526020017f544c0000000000000000000000000000000000000000000000000000000000008152506000610217610a8e60201b60201c565b9050806000806101000a81548173ffffffffffffffffffffffffffffffffffffffff021916908373ffffffffffffffffffffffffffffffffffffffff160217905550508160049081610269919061114a565b508060059081610279919061114a565b5050503073ffffffffffffffffffffffffffffffffffffffff16600f60009054906101000a900473ffffffffffffffffffffffffffffffffffffffff1673ffffffffffffffffffffffffffffffffffffffff161061030c576040517f08c379a000000000000000000000000000000000000000000000000000000000815260040161030390611279565b60405180910390fd5b6000600e60009054906101000a900473ffffffffffffffffffffffffffffffffffffffff16905060008173ffffffffffffffffffffffffffffffffffffffff1663c45a01556040518163ffffffff1660e01b8152600401602060405180830381865afa158015610380573d6000803e3d6000fd5b505050506040513d601f19601f820116820180604052508101906103a49190610ecd565b73ffffffffffffffffffffffffffffffffffffffff1663c9c6539630600f60009054906101000a900473ffffffffffffffffffffffffffffffffffffffff166040518363ffffffff1660e01b81526004016104009291906112a8565b6020604051808303816000875af115801561041f573d6000803e3d6000fd5b505050506040513d601f19601f820116820180604052508101906104439190610ecd565b905061049330600e60009054906101000a900473ffffffffffffffffffffffffffffffffffffffff167a184f03e93ff9f4daa797ed6e38ed64bf6a1f010000000000000000610a9660201b60201c565b6104e183600e60009054906101000a900473ffffffffffffffffffffffffffffffffffffffff167a184f03e93ff9f4daa797ed6e38ed64bf6a1f010000000000000000610a9660201b60201c565b600f60009054906101000a900473ffffffffffffffffffffffffffffffffffffffff16600960006101000a81548173ffffffffffffffffffffffffffffffffffffffff021916908373ffffffffffffffffffffffffffffffffffffffff160217905550600960009054906101000a900473ffffffffffffffffffffffffffffffffffffffff1673ffffffffffffffffffffffffffffffffffffffff1663095ea7b3600e60009054906101000a900473ffffffffffffffffffffffffffffffffffffffff167a184f03e93ff9f4daa797ed6e38ed64bf6a1f0100000000000000006040518363ffffffff1660e01b81526004016105de92919061130c565b6020604051808303816000875af11580156105fd573d6000803e3d6000fd5b505050506040513d601f19601f82011682018060405250810190610621919061136d565b5080600a60006101000a81548173ffffffffffffffffffffffffffffffffffffffff021916908373ffffffffffffffffffffffffffffffffffffffff160217905550600f60009054906101000a900473ffffffffffffffffffffffffffffffffffffffff1660405161069290610e5d565b61069c919061139a565b604051809103906000f0801580156106b8573d6000803e3d6000fd5b50600b60006101000a81548173ffffffffffffffffffffffffffffffffffffffff021916908373ffffffffffffffffffffffffffffffffffffffff16021790555081600760006101000a81548173ffffffffffffffffffffffffffffffffffffffff021916908373ffffffffffffffffffffffffffffffffffffffff16021790555080600c60006101000a81548173ffffffffffffffffffffffffffffffffffffffff021916908373ffffffffffffffffffffffffffffffffffffffff16021790555082600860006101000a81548173ffffffffffffffffffffffffffffffffffffffff021916908373ffffffffffffffffffffffffffffffffffffffff1602179055506001601460008373ffffffffffffffffffffffffffffffffffffffff1673ffffffffffffffffffffffffffffffffffffffff16815260200190815260200160002060006101000a81548160ff02191690831515021790555060008054906101000a900473ffffffffffffffffffffffffffffffffffffffff16600660006101000a81548173ffffffffffffffffffffffffffffffffffffffff021916908373ffffffffffffffffffffffffffffffffffffffff1602179055506a115eec47f6cf7e3500000060178190555061089983601754610c5f60201b60201c565b601754601681905550601e839080600181540180825580915050600190039060005260206000200160009091909190916101000a81548173ffffffffffffffffffffffffffffffffffffffff021916908373ffffffffffffffffffffffffffffffffffffffff1602179055506001601f60008573ffffffffffffffffffffffffffffffffffffffff1673ffffffffffffffffffffffffffffffffffffffff16815260200190815260200160002060006101000a81548160ff0219169083151502179055506001601a60003073ffffffffffffffffffffffffffffffffffffffff1673ffffffffffffffffffffffffffffffffffffffff16815260200190815260200160002060006101000a81548160ff0219169083151502179055506001601a60008060009054906101000a900473ffffffffffffffffffffffffffffffffffffffff1673ffffffffffffffffffffffffffffffffffffffff1673ffffffffffffffffffffffffffffffffffffffff16815260200190815260200160002060006101000a81548160ff0219169083151502179055506001601a60008573ffffffffffffffffffffffffffffffffffffffff1673ffffffffffffffffffffffffffffffffffffffff16815260200190815260200160002060006101000a81548160ff02191690831515021790555050505061163e565b600033905090565b600073ffffffffffffffffffffffffffffffffffffffff168373ffffffffffffffffffffffffffffffffffffffff1603610b05576040517f08c379a0000000000000000000000000000000000000000000000000000000008152600401610afc90611427565b60405180910390fd5b600073ffffffffffffffffffffffffffffffffffffffff168273ffffffffffffffffffffffffffffffffffffffff1603610b74576040517f08c379a0000000000000000000000000000000000000000000000000000000008152600401610b6b906114b9565b60405180910390fd5b80600260008573ffffffffffffffffffffffffffffffffffffffff1673ffffffffffffffffffffffffffffffffffffffff16815260200190815260200160002060008473ffffffffffffffffffffffffffffffffffffffff1673ffffffffffffffffffffffffffffffffffffffff168152602001908152602001600020819055508173ffffffffffffffffffffffffffffffffffffffff168373ffffffffffffffffffffffffffffffffffffffff167f8c5be1e5ebec7d5bd14f71427d1e84f3dd0314c0f7b2291e5b200ac8c7c3b92583604051610c5291906114e8565b60405180910390a3505050565b600073ffffffffffffffffffffffffffffffffffffffff168273ffffffffffffffffffffffffffffffffffffffff1603610cce576040517f08c379a0000000000000000000000000000000000000000000000000000000008152600401610cc59061154f565b60405180910390fd5b610ce060008383610dfa60201b60201c565b610cf581600354610dff60201b90919060201c565b600381905550610d4d81600160008573ffffffffffffffffffffffffffffffffffffffff1673ffffffffffffffffffffffffffffffffffffffff16815260200190815260200160002054610dff60201b90919060201c565b600160008473ffffffffffffffffffffffffffffffffffffffff1673ffffffffffffffffffffffffffffffffffffffff168152602001908152602001600020819055508173ffffffffffffffffffffffffffffffffffffffff16600073ffffffffffffffffffffffffffffffffffffffff167fddf252ad1be2c89b69c2b068fc378daa952ba7f163c4a11628f55a4df523b3ef83604051610dee91906114e8565b60405180910390a35050565b505050565b6000808284610e0e919061159e565b905083811015610e53576040517f08c379a0000000000000000000000000000000000000000000000000000000008152600401610e4a9061161e565b60405180910390fd5b8091505092915050565b610476806171b483390190565b600080fd5b600073ffffffffffffffffffffffffffffffffffffffff82169050919050565b6000610e9a82610e6f565b9050919050565b610eaa81610e8f565b8114610eb557600080fd5b50565b600081519050610ec781610ea1565b92915050565b600060208284031215610ee357610ee2610e6a565b5b6000610ef184828501610eb8565b91505092915050565b600081519050919050565b7f4e487b7100000000000000000000000000000000000000000000000000000000600052604160045260246000fd5b7f4e487b7100000000000000000000000000000000000000000000000000000000600052602260045260246000fd5b60006002820490506001821680610f7b57607f821691505b602082108103610f8e57610f8d610f34565b5b50919050565b60008190508160005260206000209050919050565b60006020601f8301049050919050565b600082821b905092915050565b600060088302610ff67fffffffffffffffffffffffffffffffffffffffffffffffffffffffffffffffff82610fb9565b6110008683610fb9565b95508019841693508086168417925050509392505050565b6000819050919050565b6000819050919050565b600061104761104261103d84611018565b611022565b611018565b9050919050565b6000819050919050565b6110618361102c565b61107561106d8261104e565b848454610fc6565b825550505050565b600090565b61108a61107d565b611095818484611058565b505050565b5b818110156110b9576110ae600082611082565b60018101905061109b565b5050565b601f8211156110fe576110cf81610f94565b6110d884610fa9565b810160208510156110e7578190505b6110fb6110f385610fa9565b83018261109a565b50505b505050565b600082821c905092915050565b600061112160001984600802611103565b1980831691505092915050565b600061113a8383611110565b9150826002028217905092915050565b61115382610efa565b67ffffffffffffffff81111561116c5761116b610f05565b5b6111768254610f63565b6111818282856110bd565b600060209050601f8311600181146111b457600084156111a2578287015190505b6111ac858261112e565b865550611214565b601f1984166111c286610f94565b60005b828110156111ea578489015182556001820191506020850194506020810190506111c5565b868310156112075784890151611203601f891682611110565b8355505b6001600288020188555050505b505050505050565b600082825260208201905092915050565b7f42697443617420736d616c6c0000000000000000000000000000000000000000600082015250565b6000611263600c8361121c565b915061126e8261122d565b602082019050919050565b6000602082019050818103600083015261129281611256565b9050919050565b6112a281610e8f565b82525050565b60006040820190506112bd6000830185611299565b6112ca6020830184611299565b9392505050565b6000819050919050565b60006112f66112f16112ec846112d1565b611022565b611018565b9050919050565b611306816112db565b82525050565b60006040820190506113216000830185611299565b61132e60208301846112fd565b9392505050565b60008115159050919050565b61134a81611335565b811461135557600080fd5b50565b60008151905061136781611341565b92915050565b60006020828403121561138357611382610e6a565b5b600061139184828501611358565b91505092915050565b60006020820190506113af6000830184611299565b92915050565b7f45524332303a20617070726f76652066726f6d20746865207a65726f2061646460008201527f7265737300000000000000000000000000000000000000000000000000000000602082015250565b600061141160248361121c565b915061141c826113b5565b604082019050919050565b6000602082019050818103600083015261144081611404565b9050919050565b7f45524332303a20617070726f766520746f20746865207a65726f20616464726560008201527f7373000000000000000000000000000000000000000000000000000000000000602082015250565b60006114a360228361121c565b91506114ae82611447565b604082019050919050565b600060208201905081810360008301526114d281611496565b9050919050565b6114e281611018565b82525050565b60006020820190506114fd60008301846114d9565b92915050565b7f45524332303a206d696e7420746f20746865207a65726f206164647265737300600082015250565b6000611539601f8361121c565b915061154482611503565b602082019050919050565b600060208201905081810360008301526115688161152c565b9050919050565b7f4e487b7100000000000000000000000000000000000000000000000000000000600052601160045260246000fd5b60006115a982611018565b91506115b483611018565b92508282019050808211156115cc576115cb61156f565b5b92915050565b7f536166654d6174683a206164646974696f6e206f766572666c6f770000000000600082015250565b6000611608601b8361121c565b9150611613826115d2565b602082019050919050565b60006020820190508181036000830152611637816115fb565b9050919050565b615b678061164d6000396000f3fe6080604052600436106101dc5760003560e01c8063708f0aed116101025780638da5cb5b11610095578063a457c2d711610064578063a457c2d7146106f6578063a9059cbb14610733578063dd62ed3e14610770578063f2fde38b146107ad576101e3565b80638da5cb5b1461064a57806395d89b41146106755780639af5adcd146106a05780639b4405f0146106cb576101e3565b806373ada3f6116100d157806373ada3f614610590578063744a1c22146105b957806378e97925146105e25780638982503d1461060d576101e3565b8063708f0aed146104d657806370a0823114610513578063715018a61461055057806373928f6514610567576101e3565b80632f0d77c11161017a57806349bd5a5e1161014957806349bd5a5e1461042c5780634a74bb021461045757806363792668146104825780636fc1f662146104ab576101e3565b80632f0d77c11461035e578063313ce5671461039b57806339509351146103c65780633e0a322d14610403576101e3565b8063228cb733116101b6578063228cb7331461027b57806323b872dd146102a6578063240f8c89146102e35780632ea12a6b14610320576101e3565b806306fdde03146101e8578063095ea7b31461021357806318160ddd14610250576101e3565b366101e357005b600080fd5b3480156101f457600080fd5b506101fd6107d6565b60405161020a9190614968565b60405180910390f35b34801561021f57600080fd5b5061023a60048036038101906102359190614a32565b610868565b6040516102479190614a8d565b60405180910390f35b34801561025c57600080fd5b50610265610886565b6040516102729190614ab7565b60405180910390f35b34801561028757600080fd5b50610290610890565b60405161029d9190614b31565b60405180910390f35b3480156102b257600080fd5b506102cd60048036038101906102c89190614b4c565b6108b6565b6040516102da9190614a8d565b60405180910390f35b3480156102ef57600080fd5b5061030a60048036038101906103059190614b9f565b610990565b6040516103179190614ab7565b60405180910390f35b34801561032c57600080fd5b5061034760048036038101906103429190614bcc565b6109a8565b604051610355929190614bf9565b60405180910390f35b34801561036a57600080fd5b5061038560048036038101906103809190614b9f565b610b83565b6040516103929190614a8d565b60405180910390f35b3480156103a757600080fd5b506103b0610ba3565b6040516103bd9190614c3e565b60405180910390f35b3480156103d257600080fd5b506103ed60048036038101906103e89190614a32565b610bac565b6040516103fa9190614a8d565b60405180910390f35b34801561040f57600080fd5b5061042a60048036038101906104259190614bcc565b610c5f565b005b34801561043857600080fd5b50610441610cfe565b60405161044e9190614c68565b60405180910390f35b34801561046357600080fd5b5061046c610d24565b6040516104799190614a8d565b60405180910390f35b34801561048e57600080fd5b506104a960048036038101906104a49190614df7565b610d37565b005b3480156104b757600080fd5b506104c0610e5b565b6040516104cd9190614e62565b60405180910390f35b3480156104e257600080fd5b506104fd60048036038101906104f89190614b9f565b610e61565b60405161050a9190614ab7565b60405180910390f35b34801561051f57600080fd5b5061053a60048036038101906105359190614b9f565b610e79565b6040516105479190614ab7565b60405180910390f35b34801561055c57600080fd5b50610565610f04565b005b34801561057357600080fd5b5061058e60048036038101906105899190614e7d565b610fdc565b005b34801561059c57600080fd5b506105b760048036038101906105b29190614e7d565b6110cc565b005b3480156105c557600080fd5b506105e060048036038101906105db9190614e7d565b6111bc565b005b3480156105ee57600080fd5b506105f76112ac565b6040516106049190614ab7565b60405180910390f35b34801561061957600080fd5b50610634600480360381019061062f9190614b9f565b6112b2565b6040516106419190614a8d565b60405180910390f35b34801561065657600080fd5b5061065f6112d2565b60405161066c9190614c68565b60405180910390f35b34801561068157600080fd5b5061068a6112fb565b6040516106979190614968565b60405180910390f35b3480156106ac57600080fd5b506106b561138d565b6040516106c29190614e62565b60405180910390f35b3480156106d757600080fd5b506106e06113b3565b6040516106ed9190614ab7565b60405180910390f35b34801561070257600080fd5b5061071d60048036038101906107189190614a32565b6113c0565b60405161072a9190614a8d565b60405180910390f35b34801561073f57600080fd5b5061075a60048036038101906107559190614a32565b61148d565b6040516107679190614a8d565b60405180910390f35b34801561077c57600080fd5b5061079760048036038101906107929190614ebd565b6114ab565b6040516107a49190614ab7565b60405180910390f35b3480156107b957600080fd5b506107d460048036038101906107cf9190614b9f565b611532565b005b6060600480546107e590614f2c565b80601f016020809104026020016040519081016040528092919081815260200182805461081190614f2c565b801561085e5780601f106108335761010080835404028352916020019161085e565b820191906000526020600020905b81548152906001019060200180831161084157829003601f168201915b5050505050905090565b600061087c610875611679565b8484611681565b6001905092915050565b6000600354905090565b600b60009054906101000a900473ffffffffffffffffffffffffffffffffffffffff1681565b60006108c43385858561184a565b610985846108d0611679565b61098085604051806060016040528060288152602001615ae560289139600260008b73ffffffffffffffffffffffffffffffffffffffff1673ffffffffffffffffffffffffffffffffffffffff1681526020019081526020016000206000610936611679565b73ffffffffffffffffffffffffffffffffffffffff1673ffffffffffffffffffffffffffffffffffffffff16815260200190815260200160002054611d8d9092919063ffffffff16565b611681565b600190509392505050565b601b6020528060005260406000206000915090505481565b6000806000600a60009054906101000a900473ffffffffffffffffffffffffffffffffffffffff1673ffffffffffffffffffffffffffffffffffffffff166318160ddd6040518163ffffffff1660e01b8152600401602060405180830381865afa158015610a1a573d6000803e3d6000fd5b505050506040513d601f19601f82011682018060405250810190610a3e9190614f72565b9050600080600c60009054906101000a900473ffffffffffffffffffffffffffffffffffffffff1673ffffffffffffffffffffffffffffffffffffffff16630902f1ac6040518163ffffffff1660e01b8152600401606060405180830381865afa158015610ab0573d6000803e3d6000fd5b505050506040513d601f19601f82011682018060405250810190610ad49190615021565b506dffffffffffffffffffffffffffff1691506dffffffffffffffffffffffffffff1691506000610b486103f1610b3a6103e8610b2c87610b1e8d8b611df190919063ffffffff16565b611e6b90919063ffffffff16565b611e6b90919063ffffffff16565b611df190919063ffffffff16565b90506000610b7185610b638585611df190919063ffffffff16565b611e6b90919063ffffffff16565b90508181965096505050505050915091565b60106020528060005260406000206000915054906101000a900460ff1681565b60006012905090565b6000610c55610bb9611679565b84610c508560026000610bca611679565b73ffffffffffffffffffffffffffffffffffffffff1673ffffffffffffffffffffffffffffffffffffffff16815260200190815260200160002060008973ffffffffffffffffffffffffffffffffffffffff1673ffffffffffffffffffffffffffffffffffffffff16815260200190815260200160002054611eb590919063ffffffff16565b611681565b6001905092915050565b610c67611679565b73ffffffffffffffffffffffffffffffffffffffff1660008054906101000a900473ffffffffffffffffffffffffffffffffffffffff1673ffffffffffffffffffffffffffffffffffffffff1614610cf4576040517f08c379a0000000000000000000000000000000000000000000000000000000008152600401610ceb906150c0565b60405180910390fd5b8060168190555050565b600c60009054906101000a900473ffffffffffffffffffffffffffffffffffffffff1681565b601560009054906101000a900460ff1681565b610d3f611679565b73ffffffffffffffffffffffffffffffffffffffff1660008054906101000a900473ffffffffffffffffffffffffffffffffffffffff1673ffffffffffffffffffffffffffffffffffffffff1614610dcc576040517f08c379a0000000000000000000000000000000000000000000000000000000008152600401610dc3906150c0565b60405180910390fd5b60005b8251811015610e56578160116000858481518110610df057610def6150e0565b5b602002602001015173ffffffffffffffffffffffffffffffffffffffff1673ffffffffffffffffffffffffffffffffffffffff16815260200190815260200160002060006101000a81548160ff0219169083151502179055508080600101915050610dcf565b505050565b60001981565b60196020528060005260406000206000915090505481565b6000600c60009054906101000a900473ffffffffffffffffffffffffffffffffffffffff1673ffffffffffffffffffffffffffffffffffffffff168273ffffffffffffffffffffffffffffffffffffffff1603610ef3576000610edb83611f13565b905060008111610eea57600080fd5b80915050610eff565b610efc82611f13565b90505b919050565b610f0c611679565b73ffffffffffffffffffffffffffffffffffffffff1660008054906101000a900473ffffffffffffffffffffffffffffffffffffffff1673ffffffffffffffffffffffffffffffffffffffff1614610f99576040517f08c379a0000000000000000000000000000000000000000000000000000000008152600401610f90906150c0565b60405180910390fd5b60008060006101000a81548173ffffffffffffffffffffffffffffffffffffffff021916908373ffffffffffffffffffffffffffffffffffffffff160217905550565b610fe4611679565b73ffffffffffffffffffffffffffffffffffffffff1660008054906101000a900473ffffffffffffffffffffffffffffffffffffffff1673ffffffffffffffffffffffffffffffffffffffff1614611071576040517f08c379a0000000000000000000000000000000000000000000000000000000008152600401611068906150c0565b60405180910390fd5b80601160008473ffffffffffffffffffffffffffffffffffffffff1673ffffffffffffffffffffffffffffffffffffffff16815260200190815260200160002060006101000a81548160ff0219169083151502179055505050565b6110d4611679565b73ffffffffffffffffffffffffffffffffffffffff1660008054906101000a900473ffffffffffffffffffffffffffffffffffffffff1673ffffffffffffffffffffffffffffffffffffffff1614611161576040517f08c379a0000000000000000000000000000000000000000000000000000000008152600401611158906150c0565b60405180910390fd5b80601160008473ffffffffffffffffffffffffffffffffffffffff1673ffffffffffffffffffffffffffffffffffffffff16815260200190815260200160002060006101000a81548160ff0219169083151502179055505050565b6111c4611679565b73ffffffffffffffffffffffffffffffffffffffff1660008054906101000a900473ffffffffffffffffffffffffffffffffffffffff1673ffffffffffffffffffffffffffffffffffffffff1614611251576040517f08c379a0000000000000000000000000000000000000000000000000000000008152600401611248906150c0565b60405180910390fd5b80601460008473ffffffffffffffffffffffffffffffffffffffff1673ffffffffffffffffffffffffffffffffffffffff16815260200190815260200160002060006101000a81548160ff0219169083151502179055505050565b60165481565b60146020528060005260406000206000915054906101000a900460ff1681565b60008060009054906101000a900473ffffffffffffffffffffffffffffffffffffffff16905090565b60606005805461130a90614f2c565b80601f016020809104026020016040519081016040528092919081815260200182805461133690614f2c565b80156113835780601f1061135857610100808354040283529160200191611383565b820191906000526020600020905b81548152906001019060200180831161136657829003601f168201915b5050505050905090565b601d60009054906101000a900473ffffffffffffffffffffffffffffffffffffffff1681565b6000601e80549050905090565b60006114836113cd611679565b8461147e85604051806060016040528060258152602001615b0d60259139600260006113f7611679565b73ffffffffffffffffffffffffffffffffffffffff1673ffffffffffffffffffffffffffffffffffffffff16815260200190815260200160002060008a73ffffffffffffffffffffffffffffffffffffffff1673ffffffffffffffffffffffffffffffffffffffff16815260200190815260200160002054611d8d9092919063ffffffff16565b611681565b6001905092915050565b60006114a161149a611679565b8484611f5c565b6001905092915050565b6000600260008473ffffffffffffffffffffffffffffffffffffffff1673ffffffffffffffffffffffffffffffffffffffff16815260200190815260200160002060008373ffffffffffffffffffffffffffffffffffffffff1673ffffffffffffffffffffffffffffffffffffffff16815260200190815260200160002054905092915050565b61153a611679565b73ffffffffffffffffffffffffffffffffffffffff1660008054906101000a900473ffffffffffffffffffffffffffffffffffffffff1673ffffffffffffffffffffffffffffffffffffffff16146115c7576040517f08c379a00000000000000000000000000000000000000000000000000000000081526004016115be906150c0565b60405180910390fd5b600073ffffffffffffffffffffffffffffffffffffffff168173ffffffffffffffffffffffffffffffffffffffff1603611636576040517f08c379a000000000000000000000000000000000000000000000000000000000815260040161162d90615181565b60405180910390fd5b806000806101000a81548173ffffffffffffffffffffffffffffffffffffffff021916908373ffffffffffffffffffffffffffffffffffffffff16021790555050565b600033905090565b600073ffffffffffffffffffffffffffffffffffffffff168373ffffffffffffffffffffffffffffffffffffffff16036116f0576040517f08c379a00000000000000000000000000000000000000000000000000000000081526004016116e790615213565b60405180910390fd5b600073ffffffffffffffffffffffffffffffffffffffff168273ffffffffffffffffffffffffffffffffffffffff160361175f576040517f08c379a0000000000000000000000000000000000000000000000000000000008152600401611756906152a5565b60405180910390fd5b80600260008573ffffffffffffffffffffffffffffffffffffffff1673ffffffffffffffffffffffffffffffffffffffff16815260200190815260200160002060008473ffffffffffffffffffffffffffffffffffffffff1673ffffffffffffffffffffffffffffffffffffffff168152602001908152602001600020819055508173ffffffffffffffffffffffffffffffffffffffff168373ffffffffffffffffffffffffffffffffffffffff167f8c5be1e5ebec7d5bd14f71427d1e84f3dd0314c0f7b2291e5b200ac8c7c3b9258360405161183d9190614ab7565b60405180910390a3505050565b600073ffffffffffffffffffffffffffffffffffffffff168373ffffffffffffffffffffffffffffffffffffffff16036118b9576040517f08c379a00000000000000000000000000000000000000000000000000000000081526004016118b090615337565b60405180910390fd5b600073ffffffffffffffffffffffffffffffffffffffff168273ffffffffffffffffffffffffffffffffffffffff1603611928576040517f08c379a000000000000000000000000000000000000000000000000000000000815260040161191f906153c9565b60405180910390fd5b8273ffffffffffffffffffffffffffffffffffffffff168273ffffffffffffffffffffffffffffffffffffffff1603611996576040517f08c379a000000000000000000000000000000000000000000000000000000000815260040161198d9061545b565b60405180910390fd5b600073ffffffffffffffffffffffffffffffffffffffff168473ffffffffffffffffffffffffffffffffffffffff1603611a05576040517f08c379a00000000000000000000000000000000000000000000000000000000081526004016119fc9061545b565b60405180910390fd5b42601654118015611a4057506000611a3e600c60009054906101000a900473ffffffffffffffffffffffffffffffffffffffff16611f13565b145b15611aa057600860009054906101000a900473ffffffffffffffffffffffffffffffffffffffff1673ffffffffffffffffffffffffffffffffffffffff168373ffffffffffffffffffffffffffffffffffffffff1614611a9f57600080fd5b5b600c60009054906101000a900473ffffffffffffffffffffffffffffffffffffffff1673ffffffffffffffffffffffffffffffffffffffff168273ffffffffffffffffffffffffffffffffffffffff1603611d7b57600080611b0186612d06565b915091508115611d78574260165410611b4f576040517f08c379a0000000000000000000000000000000000000000000000000000000008152600401611b46906154c7565b60405180910390fd5b600080611b5b836109a8565b91509150848110611d75578673ffffffffffffffffffffffffffffffffffffffff163273ffffffffffffffffffffffffffffffffffffffff1614611bbf57600d60009054906101000a900473ffffffffffffffffffffffffffffffffffffffff1695505b611c1182601960008a73ffffffffffffffffffffffffffffffffffffffff1673ffffffffffffffffffffffffffffffffffffffff16815260200190815260200160002054611eb590919063ffffffff16565b601960008973ffffffffffffffffffffffffffffffffffffffff1673ffffffffffffffffffffffffffffffffffffffff16815260200190815260200160002081905550611c5f878787612f95565b601f60008873ffffffffffffffffffffffffffffffffffffffff1673ffffffffffffffffffffffffffffffffffffffff16815260200190815260200160002060009054906101000a900460ff16611d6c57601e879080600181540180825580915050600190039060005260206000200160009091909190916101000a81548173ffffffffffffffffffffffffffffffffffffffff021916908373ffffffffffffffffffffffffffffffffffffffff1602179055506001601f60008973ffffffffffffffffffffffffffffffffffffffff1673ffffffffffffffffffffffffffffffffffffffff16815260200190815260200160002060006101000a81548160ff0219169083151502179055505b50505050611d87565b50505b50505b611d86838383611f5c565b5b50505050565b6000838311158290611dd5576040517f08c379a0000000000000000000000000000000000000000000000000000000008152600401611dcc9190614968565b60405180910390fd5b5060008385611de49190615516565b9050809150509392505050565b6000808303611e035760009050611e65565b60008284611e11919061554a565b9050828482611e2091906155bb565b14611e60576040517f08c379a0000000000000000000000000000000000000000000000000000000008152600401611e579061565e565b60405180910390fd5b809150505b92915050565b6000611ead83836040518060400160405280601a81526020017f536166654d6174683a206469766973696f6e206279207a65726f000000000000815250613221565b905092915050565b6000808284611ec4919061567e565b905083811015611f09576040517f08c379a0000000000000000000000000000000000000000000000000000000008152600401611f00906156fe565b60405180910390fd5b8091505092915050565b6000600160008373ffffffffffffffffffffffffffffffffffffffff1673ffffffffffffffffffffffffffffffffffffffff168152602001908152602001600020549050919050565b600073ffffffffffffffffffffffffffffffffffffffff168373ffffffffffffffffffffffffffffffffffffffff1603611fcb576040517f08c379a0000000000000000000000000000000000000000000000000000000008152600401611fc290615337565b60405180910390fd5b600073ffffffffffffffffffffffffffffffffffffffff168273ffffffffffffffffffffffffffffffffffffffff160361203a576040517f08c379a0000000000000000000000000000000000000000000000000000000008152600401612031906153c9565b60405180910390fd5b8273ffffffffffffffffffffffffffffffffffffffff168273ffffffffffffffffffffffffffffffffffffffff16036120a8576040517f08c379a000000000000000000000000000000000000000000000000000000000815260040161209f9061545b565b60405180910390fd5b806120b284611f13565b10156120f3576040517f08c379a00000000000000000000000000000000000000000000000000000000081526004016120ea9061576a565b60405180910390fd5b600d60009054906101000a900473ffffffffffffffffffffffffffffffffffffffff1673ffffffffffffffffffffffffffffffffffffffff168273ffffffffffffffffffffffffffffffffffffffff1614801561217b57503273ffffffffffffffffffffffffffffffffffffffff168373ffffffffffffffffffffffffffffffffffffffff16145b156121905761218b838383612f95565b612d01565b601a60008473ffffffffffffffffffffffffffffffffffffffff1673ffffffffffffffffffffffffffffffffffffffff16815260200190815260200160002060009054906101000a900460ff16806122315750601a60008373ffffffffffffffffffffffffffffffffffffffff1673ffffffffffffffffffffffffffffffffffffffff16815260200190815260200160002060009054906101000a900460ff165b1561224657612241838383612f95565b612d01565b600c60009054906101000a900473ffffffffffffffffffffffffffffffffffffffff1673ffffffffffffffffffffffffffffffffffffffff168373ffffffffffffffffffffffffffffffffffffffff160361244c576000806122a6613284565b9150915081156124495760006122bb826109a8565b509050601960008673ffffffffffffffffffffffffffffffffffffffff1673ffffffffffffffffffffffffffffffffffffffff168152602001908152602001600020548111156123375761233286600d60009054906101000a900473ffffffffffffffffffffffffffffffffffffffff1686612f95565b612441565b61238981601960008873ffffffffffffffffffffffffffffffffffffffff1673ffffffffffffffffffffffffffffffffffffffff168152602001908152602001600020546134c190919063ffffffff16565b601960008773ffffffffffffffffffffffffffffffffffffffff1673ffffffffffffffffffffffffffffffffffffffff168152602001908152602001600020819055506123ff86306123fa6018546123ec6103e88a611e6b90919063ffffffff16565b611df190919063ffffffff16565b612f95565b61242860185461241a6103e887611e6b90919063ffffffff16565b611df190919063ffffffff16565b846124339190615516565b9350612440868686612f95565b5b505050612d01565b50505b601460008473ffffffffffffffffffffffffffffffffffffffff1673ffffffffffffffffffffffffffffffffffffffff16815260200190815260200160002060009054906101000a900460ff161561290557601160008373ffffffffffffffffffffffffffffffffffffffff1673ffffffffffffffffffffffffffffffffffffffff16815260200190815260200160002060009054906101000a900460ff168061253f5750601060008373ffffffffffffffffffffffffffffffffffffffff1673ffffffffffffffffffffffffffffffffffffffff16815260200190815260200160002060009054906101000a900460ff165b156126d5574261255c61012c6016546134c190919063ffffffff16565b1061259c576040517f08c379a0000000000000000000000000000000000000000000000000000000008152600401612593906154c7565b60405180910390fd5b601160008373ffffffffffffffffffffffffffffffffffffffff1673ffffffffffffffffffffffffffffffffffffffff16815260200190815260200160002060009054906101000a900460ff1680156125f757506013548111155b612636576040517f08c379a000000000000000000000000000000000000000000000000000000000815260040161262d906157d6565b60405180910390fd5b601060008373ffffffffffffffffffffffffffffffffffffffff1673ffffffffffffffffffffffffffffffffffffffff16815260200190815260200160002060009054906101000a900460ff16801561269157506012548111155b6126d0576040517f08c379a00000000000000000000000000000000000000000000000000000000081526004016126c7906157d6565b60405180910390fd5b61271a565b4260165410612719576040517f08c379a0000000000000000000000000000000000000000000000000000000008152600401612710906154c7565b60405180910390fd5b5b601460008373ffffffffffffffffffffffffffffffffffffffff1673ffffffffffffffffffffffffffffffffffffffff16815260200190815260200160002060009054906101000a900460ff16156127a7576040517f08c379a000000000000000000000000000000000000000000000000000000000815260040161279e90615842565b60405180910390fd5b6000806127b261350b565b915091506127e985306127e46018546127d66103e889611e6b90919063ffffffff16565b611df190919063ffffffff16565b612f95565b60006018546103e86127fb9190615516565b9050612824816128166103e887611e6b90919063ffffffff16565b611df190919063ffffffff16565b935061287883601b60008873ffffffffffffffffffffffffffffffffffffffff1673ffffffffffffffffffffffffffffffffffffffff16815260200190815260200160002054611eb590919063ffffffff16565b601b60008773ffffffffffffffffffffffffffffffffffffffff1673ffffffffffffffffffffffffffffffffffffffff168152602001908152602001600020819055508382116128fd576040517f08c379a00000000000000000000000000000000000000000000000000000000081526004016128f4906158ae565b60405180910390fd5b505050612c95565b601460008373ffffffffffffffffffffffffffffffffffffffff1673ffffffffffffffffffffffffffffffffffffffff16815260200190815260200160002060009054906101000a900460ff1615612c9457426016541061299b576040517f08c379a0000000000000000000000000000000000000000000000000000000008152600401612992906154c7565b60405180910390fd5b601460008473ffffffffffffffffffffffffffffffffffffffff1673ffffffffffffffffffffffffffffffffffffffff16815260200190815260200160002060009054906101000a900460ff1615612a28576040517f08c379a0000000000000000000000000000000000000000000000000000000008152600401612a1f90615842565b60405180910390fd5b80612a3284611f13565b03612a6557612a626201869f612a54620186a084611e6b90919063ffffffff16565b611df190919063ffffffff16565b90505b612a988330612a93601854612a856103e887611e6b90919063ffffffff16565b611df190919063ffffffff16565b612f95565b6000612aa382613758565b90506000601b60008673ffffffffffffffffffffffffffffffffffffffff1673ffffffffffffffffffffffffffffffffffffffff1681526020019081526020016000205490506000601b60008673ffffffffffffffffffffffffffffffffffffffff1673ffffffffffffffffffffffffffffffffffffffff1681526020019081526020016000205483612b369190615516565b905060006018546103e8612b4a9190615516565b90506000831115612bef576000612b7e6064612b70600a87611df190919063ffffffff16565b611e6b90919063ffffffff16565b905080831115612bed576000612b9e600283611e6b90919063ffffffff16565b9050612bcd89600d60009054906101000a900473ffffffffffffffffffffffffffffffffffffffff1683612f95565b612bd6816138c2565b612be982886134c190919063ffffffff16565b9650505b505b612c1681612c086103e888611e6b90919063ffffffff16565b611df190919063ffffffff16565b94506000612c24888761403f565b905080861115612c78576000601b60008a73ffffffffffffffffffffffffffffffffffffffff1673ffffffffffffffffffffffffffffffffffffffff16815260200190815260200160002081905550612c83565b612c828882614264565b5b809550612c8e6144ef565b50505050505b5b612ca0838383612f95565b600c60009054906101000a900473ffffffffffffffffffffffffffffffffffffffff1673ffffffffffffffffffffffffffffffffffffffff168373ffffffffffffffffffffffffffffffffffffffff1603612d0057612cff8232614609565b5b5b505050565b6000807310ed43c718714eb63d5aa57b78b54704e256024e73ffffffffffffffffffffffffffffffffffffffff168373ffffffffffffffffffffffffffffffffffffffff1614612d5c5760008091509150612f90565b6000600c60009054906101000a900473ffffffffffffffffffffffffffffffffffffffff1673ffffffffffffffffffffffffffffffffffffffff16630dfe16816040518163ffffffff1660e01b8152600401602060405180830381865afa158015612dcb573d6000803e3d6000fd5b505050506040513d601f19601f82011682018060405250810190612def91906158e3565b90506000600c60009054906101000a900473ffffffffffffffffffffffffffffffffffffffff1673ffffffffffffffffffffffffffffffffffffffff16630902f1ac6040518163ffffffff1660e01b8152600401606060405180830381865afa158015612e60573d6000803e3d6000fd5b505050506040513d601f19601f82011682018060405250810190612e849190615021565b50506dffffffffffffffffffffffffffff16905060008273ffffffffffffffffffffffffffffffffffffffff166370a08231600c60009054906101000a900473ffffffffffffffffffffffffffffffffffffffff166040518263ffffffff1660e01b8152600401612ef59190614c68565b602060405180830381865afa158015612f12573d6000803e3d6000fd5b505050506040513d601f19601f82011682018060405250810190612f369190614f72565b90503073ffffffffffffffffffffffffffffffffffffffff168373ffffffffffffffffffffffffffffffffffffffff1614612f8c5781811115612f8b578181612f7f9190615516565b9350620f424084101594505b5b5050505b915091565b600073ffffffffffffffffffffffffffffffffffffffff168373ffffffffffffffffffffffffffffffffffffffff1603613004576040517f08c379a0000000000000000000000000000000000000000000000000000000008152600401612ffb90615337565b60405180910390fd5b600073ffffffffffffffffffffffffffffffffffffffff168273ffffffffffffffffffffffffffffffffffffffff1603613073576040517f08c379a000000000000000000000000000000000000000000000000000000000815260040161306a906153c9565b60405180910390fd5b6130df81604051806060016040528060268152602001615abf60269139600160008773ffffffffffffffffffffffffffffffffffffffff1673ffffffffffffffffffffffffffffffffffffffff16815260200190815260200160002054611d8d9092919063ffffffff16565b600160008573ffffffffffffffffffffffffffffffffffffffff1673ffffffffffffffffffffffffffffffffffffffff1681526020019081526020016000208190555061317481600160008573ffffffffffffffffffffffffffffffffffffffff1673ffffffffffffffffffffffffffffffffffffffff16815260200190815260200160002054611eb590919063ffffffff16565b600160008473ffffffffffffffffffffffffffffffffffffffff1673ffffffffffffffffffffffffffffffffffffffff168152602001908152602001600020819055508173ffffffffffffffffffffffffffffffffffffffff168373ffffffffffffffffffffffffffffffffffffffff167fddf252ad1be2c89b69c2b068fc378daa952ba7f163c4a11628f55a4df523b3ef836040516132149190614ab7565b60405180910390a3505050565b60008083118290613268576040517f08c379a000000000000000000000000000000000000000000000000000000000815260040161325f9190614968565b60405180910390fd5b506000838561327791906155bb565b9050809150509392505050565b6000806000600c60009054906101000a900473ffffffffffffffffffffffffffffffffffffffff1673ffffffffffffffffffffffffffffffffffffffff16630dfe16816040518163ffffffff1660e01b8152600401602060405180830381865afa1580156132f6573d6000803e3d6000fd5b505050506040513d601f19601f8201168201806040525081019061331a91906158e3565b90506000600c60009054906101000a900473ffffffffffffffffffffffffffffffffffffffff1673ffffffffffffffffffffffffffffffffffffffff16630902f1ac6040518163ffffffff1660e01b8152600401606060405180830381865afa15801561338b573d6000803e3d6000fd5b505050506040513d601f19601f820116820180604052508101906133af9190615021565b50506dffffffffffffffffffffffffffff16905060008273ffffffffffffffffffffffffffffffffffffffff166370a08231600c60009054906101000a900473ffffffffffffffffffffffffffffffffffffffff166040518263ffffffff1660e01b81526004016134209190614c68565b602060405180830381865afa15801561343d573d6000803e3d6000fd5b505050506040513d601f19601f820116820180604052508101906134619190614f72565b90503073ffffffffffffffffffffffffffffffffffffffff168373ffffffffffffffffffffffffffffffffffffffff16146134ba57808211156134b95780826134aa9190615516565b93506509184e72a00084101594505b5b5050509091565b600061350383836040518060400160405280601e81526020017f536166654d6174683a207375627472616374696f6e206f766572666c6f770000815250611d8d565b905092915050565b6000806000600c60009054906101000a900473ffffffffffffffffffffffffffffffffffffffff1673ffffffffffffffffffffffffffffffffffffffff16630dfe16816040518163ffffffff1660e01b8152600401602060405180830381865afa15801561357d573d6000803e3d6000fd5b505050506040513d601f19601f820116820180604052508101906135a191906158e3565b9050600080600c60009054906101000a900473ffffffffffffffffffffffffffffffffffffffff1673ffffffffffffffffffffffffffffffffffffffff16630902f1ac6040518163ffffffff1660e01b8152600401606060405180830381865afa158015613613573d6000803e3d6000fd5b505050506040513d601f19601f820116820180604052508101906136379190615021565b506dffffffffffffffffffffffffffff1691506dffffffffffffffffffffffffffff16915060008373ffffffffffffffffffffffffffffffffffffffff166370a08231600c60009054906101000a900473ffffffffffffffffffffffffffffffffffffffff166040518263ffffffff1660e01b81526004016136b99190614c68565b602060405180830381865afa1580156136d6573d6000803e3d6000fd5b505050506040513d601f19601f820116820180604052508101906136fa9190614f72565b90508281111561374857600083826137129190615516565b90508061373a8561372c8685611df190919063ffffffff16565b611e6b90919063ffffffff16565b965096505050505050613754565b60008095509550505050505b9091565b6000806000600c60009054906101000a900473ffffffffffffffffffffffffffffffffffffffff1673ffffffffffffffffffffffffffffffffffffffff16630902f1ac6040518163ffffffff1660e01b8152600401606060405180830381865afa1580156137ca573d6000803e3d6000fd5b505050506040513d601f19601f820116820180604052508101906137ee9190615021565b506dffffffffffffffffffffffffffff1691506dffffffffffffffffffffffffffff1691506000600760009054906101000a900473ffffffffffffffffffffffffffffffffffffffff1673ffffffffffffffffffffffffffffffffffffffff1663054d50d48684866040518463ffffffff1660e01b815260040161387493929190615910565b602060405180830381865afa158015613891573d6000803e3d6000fd5b505050506040513d601f19601f820116820180604052508101906138b59190614f72565b9050809350505050919050565b6000601e8054905090506000600a60009054906101000a900473ffffffffffffffffffffffffffffffffffffffff1673ffffffffffffffffffffffffffffffffffffffff166370a08231600d60009054906101000a900473ffffffffffffffffffffffffffffffffffffffff166040518263ffffffff1660e01b815260040161394b9190614c68565b602060405180830381865afa158015613968573d6000803e3d6000fd5b505050506040513d601f19601f8201168201806040525081019061398c9190614f72565b600a60009054906101000a900473ffffffffffffffffffffffffffffffffffffffff1673ffffffffffffffffffffffffffffffffffffffff166370a08231306040518263ffffffff1660e01b81526004016139e79190614c68565b602060405180830381865afa158015613a04573d6000803e3d6000fd5b505050506040513d601f19601f82011682018060405250810190613a289190614f72565b600a60009054906101000a900473ffffffffffffffffffffffffffffffffffffffff1673ffffffffffffffffffffffffffffffffffffffff166318160ddd6040518163ffffffff1660e01b8152600401602060405180830381865afa158015613a95573d6000803e3d6000fd5b505050506040513d601f19601f82011682018060405250810190613ab99190614f72565b613ac39190615516565b613acd9190615516565b9050600080600084118015613ae25750600083115b1561403857600a841115613dad5760005b600a811015613da7578460205410613b0e5760006020819055505b601e60205481548110613b2457613b236150e0565b5b9060005260206000200160009054906101000a900473ffffffffffffffffffffffffffffffffffffffff169150613c1184613c0388600a60009054906101000a900473ffffffffffffffffffffffffffffffffffffffff1673ffffffffffffffffffffffffffffffffffffffff166370a08231876040518263ffffffff1660e01b8152600401613bb49190614c68565b602060405180830381865afa158015613bd1573d6000803e3d6000fd5b505050506040513d601f19601f82011682018060405250810190613bf59190614f72565b611df190919063ffffffff16565b611e6b90919063ffffffff16565b925066038d7ea4c680008310613d8057600a60009054906101000a900473ffffffffffffffffffffffffffffffffffffffff1673ffffffffffffffffffffffffffffffffffffffff1663a9059cbb83856040518363ffffffff1660e01b8152600401613c7e929190615947565b6020604051808303816000875af1158015613c9d573d6000803e3d6000fd5b505050506040513d601f19601f82011682018060405250810190613cc19190615985565b50613d3c613cee6103f3613ce06103e887611e6b90919063ffffffff16565b611df190919063ffffffff16565b601960008573ffffffffffffffffffffffffffffffffffffffff1673ffffffffffffffffffffffffffffffffffffffff16815260200190815260200160002054611eb590919063ffffffff16565b601960008473ffffffffffffffffffffffffffffffffffffffff1673ffffffffffffffffffffffffffffffffffffffff168152602001908152602001600020819055505b600160206000828254613d93919061567e565b925050819055508080600101915050613af3565b50614037565b60005b8481101561403557601e8181548110613dcc57613dcb6150e0565b5b9060005260206000200160009054906101000a900473ffffffffffffffffffffffffffffffffffffffff169150613eb984613eab88600a60009054906101000a900473ffffffffffffffffffffffffffffffffffffffff1673ffffffffffffffffffffffffffffffffffffffff166370a08231876040518263ffffffff1660e01b8152600401613e5c9190614c68565b602060405180830381865afa158015613e79573d6000803e3d6000fd5b505050506040513d601f19601f82011682018060405250810190613e9d9190614f72565b611df190919063ffffffff16565b611e6b90919063ffffffff16565b925066038d7ea4c68000831061402857600a60009054906101000a900473ffffffffffffffffffffffffffffffffffffffff1673ffffffffffffffffffffffffffffffffffffffff1663a9059cbb83856040518363ffffffff1660e01b8152600401613f26929190615947565b6020604051808303816000875af1158015613f45573d6000803e3d6000fd5b505050506040513d601f19601f82011682018060405250810190613f699190615985565b50613fe4613f966103f3613f886103e887611e6b90919063ffffffff16565b611df190919063ffffffff16565b601960008573ffffffffffffffffffffffffffffffffffffffff1673ffffffffffffffffffffffffffffffffffffffff16815260200190815260200160002054611eb590919063ffffffff16565b601960008473ffffffffffffffffffffffffffffffffffffffff1673ffffffffffffffffffffffffffffffffffffffff168152602001908152602001600020819055505b8080600101915050613db0565b505b5b5050505050565b600080601b60008573ffffffffffffffffffffffffffffffffffffffff1673ffffffffffffffffffffffffffffffffffffffff168152602001908152602001600020549050600080600a60009054906101000a900473ffffffffffffffffffffffffffffffffffffffff1673ffffffffffffffffffffffffffffffffffffffff16630902f1ac6040518163ffffffff1660e01b8152600401606060405180830381865afa1580156140f4573d6000803e3d6000fd5b505050506040513d601f19601f820116820180604052508101906141189190615021565b506dffffffffffffffffffffffffffff1691506dffffffffffffffffffffffffffff1691506000600760009054906101000a900473ffffffffffffffffffffffffffffffffffffffff1673ffffffffffffffffffffffffffffffffffffffff166385f8c2598584866040518463ffffffff1660e01b815260040161419e93929190615910565b602060405180830381865afa1580156141bb573d6000803e3d6000fd5b505050506040513d601f19601f820116820180604052508101906141df9190614f72565b9050858110156142565760006141fe82886134c190919063ffffffff16565b90506000614229600a61421b606485611e6b90919063ffffffff16565b611df190919063ffffffff16565b9050614236893083612f95565b61424981896134c190919063ffffffff16565b965050505050505061425e565b859450505050505b92915050565b600080600a60009054906101000a900473ffffffffffffffffffffffffffffffffffffffff1673ffffffffffffffffffffffffffffffffffffffff16630902f1ac6040518163ffffffff1660e01b8152600401606060405180830381865afa1580156142d4573d6000803e3d6000fd5b505050506040513d601f19601f820116820180604052508101906142f89190615021565b506dffffffffffffffffffffffffffff1691506dffffffffffffffffffffffffffff1691506000600760009054906101000a900473ffffffffffffffffffffffffffffffffffffffff1673ffffffffffffffffffffffffffffffffffffffff1663054d50d48584866040518463ffffffff1660e01b815260040161437e93929190615910565b602060405180830381865afa15801561439b573d6000803e3d6000fd5b505050506040513d601f19601f820116820180604052508101906143bf9190614f72565b905080601b60008773ffffffffffffffffffffffffffffffffffffffff1673ffffffffffffffffffffffffffffffffffffffff1681526020019081526020016000205411156144a25761445a81601b60008873ffffffffffffffffffffffffffffffffffffffff1673ffffffffffffffffffffffffffffffffffffffff168152602001908152602001600020546134c190919063ffffffff16565b601b60008773ffffffffffffffffffffffffffffffffffffffff1673ffffffffffffffffffffffffffffffffffffffff168152602001908152602001600020819055506144e8565b6000601b60008773ffffffffffffffffffffffffffffffffffffffff1673ffffffffffffffffffffffffffffffffffffffff168152602001908152602001600020819055505b5050505050565b600061451c600c60009054906101000a900473ffffffffffffffffffffffffffffffffffffffff16611f13565b9050600061452930611f13565b90506145406107d083611e6b90919063ffffffff16565b8110614605576000600960009054906101000a900473ffffffffffffffffffffffffffffffffffffffff1673ffffffffffffffffffffffffffffffffffffffff166370a08231306040518263ffffffff1660e01b81526004016145a39190614c68565b602060405180830381865afa1580156145c0573d6000803e3d6000fd5b505050506040513d601f19601f820116820180604052508101906145e49190614f72565b9050614603816145fe600285611e6b90919063ffffffff16565b614802565b505b5050565b601f60008373ffffffffffffffffffffffffffffffffffffffff1673ffffffffffffffffffffffffffffffffffffffff16815260200190815260200160002060009054906101000a900460ff1615801561468e57508073ffffffffffffffffffffffffffffffffffffffff168273ffffffffffffffffffffffffffffffffffffffff16145b801561473d5750670de0b6b3a7640000600a60009054906101000a900473ffffffffffffffffffffffffffffffffffffffff1673ffffffffffffffffffffffffffffffffffffffff166370a08231846040518263ffffffff1660e01b81526004016146f99190614c68565b602060405180830381865afa158015614716573d6000803e3d6000fd5b505050506040513d601f19601f8201168201806040525081019061473a9190614f72565b10155b156147fe57601e829080600181540180825580915050600190039060005260206000200160009091909190916101000a81548173ffffffffffffffffffffffffffffffffffffffff021916908373ffffffffffffffffffffffffffffffffffffffff1602179055506001601f60008473ffffffffffffffffffffffffffffffffffffffff1673ffffffffffffffffffffffffffffffffffffffff16815260200190815260200160002060006101000a81548160ff0219169083151502179055505b5050565b600760009054906101000a900473ffffffffffffffffffffffffffffffffffffffff1673ffffffffffffffffffffffffffffffffffffffff1663e8e33700600f60009054906101000a900473ffffffffffffffffffffffffffffffffffffffff1630858560018030426040518963ffffffff1660e01b815260040161488e9897969594939291906159ed565b6060604051808303816000875af11580156148ad573d6000803e3d6000fd5b505050506040513d601f19601f820116820180604052508101906148d19190615a6b565b5050505050565b600081519050919050565b600082825260208201905092915050565b60005b838110156149125780820151818401526020810190506148f7565b60008484015250505050565b6000601f19601f8301169050919050565b600061493a826148d8565b61494481856148e3565b93506149548185602086016148f4565b61495d8161491e565b840191505092915050565b60006020820190508181036000830152614982818461492f565b905092915050565b6000604051905090565b600080fd5b600080fd5b600073ffffffffffffffffffffffffffffffffffffffff82169050919050565b60006149c98261499e565b9050919050565b6149d9816149be565b81146149e457600080fd5b50565b6000813590506149f6816149d0565b92915050565b6000819050919050565b614a0f816149fc565b8114614a1a57600080fd5b50565b600081359050614a2c81614a06565b92915050565b60008060408385031215614a4957614a48614994565b5b6000614a57858286016149e7565b9250506020614a6885828601614a1d565b9150509250929050565b60008115159050919050565b614a8781614a72565b82525050565b6000602082019050614aa26000830184614a7e565b92915050565b614ab1816149fc565b82525050565b6000602082019050614acc6000830184614aa8565b92915050565b6000819050919050565b6000614af7614af2614aed8461499e565b614ad2565b61499e565b9050919050565b6000614b0982614adc565b9050919050565b6000614b1b82614afe565b9050919050565b614b2b81614b10565b82525050565b6000602082019050614b466000830184614b22565b92915050565b600080600060608486031215614b6557614b64614994565b5b6000614b73868287016149e7565b9350506020614b84868287016149e7565b9250506040614b9586828701614a1d565b9150509250925092565b600060208284031215614bb557614bb4614994565b5b6000614bc3848285016149e7565b91505092915050565b600060208284031215614be257614be1614994565b5b6000614bf084828501614a1d565b91505092915050565b6000604082019050614c0e6000830185614aa8565b614c1b6020830184614aa8565b9392505050565b600060ff82169050919050565b614c3881614c22565b82525050565b6000602082019050614c536000830184614c2f565b92915050565b614c62816149be565b82525050565b6000602082019050614c7d6000830184614c59565b92915050565b600080fd5b7f4e487b7100000000000000000000000000000000000000000000000000000000600052604160045260246000fd5b614cc08261491e565b810181811067ffffffffffffffff82111715614cdf57614cde614c88565b5b80604052505050565b6000614cf261498a565b9050614cfe8282614cb7565b919050565b600067ffffffffffffffff821115614d1e57614d1d614c88565b5b602082029050602081019050919050565b600080fd5b6000614d47614d4284614d03565b614ce8565b90508083825260208201905060208402830185811115614d6a57614d69614d2f565b5b835b81811015614d935780614d7f88826149e7565b845260208401935050602081019050614d6c565b5050509392505050565b600082601f830112614db257614db1614c83565b5b8135614dc2848260208601614d34565b91505092915050565b614dd481614a72565b8114614ddf57600080fd5b50565b600081359050614df181614dcb565b92915050565b60008060408385031215614e0e57614e0d614994565b5b600083013567ffffffffffffffff811115614e2c57614e2b614999565b5b614e3885828601614d9d565b9250506020614e4985828601614de2565b9150509250929050565b614e5c8161499e565b82525050565b6000602082019050614e776000830184614e53565b92915050565b60008060408385031215614e9457614e93614994565b5b6000614ea2858286016149e7565b9250506020614eb385828601614de2565b9150509250929050565b60008060408385031215614ed457614ed3614994565b5b6000614ee2858286016149e7565b9250506020614ef3858286016149e7565b9150509250929050565b7f4e487b7100000000000000000000000000000000000000000000000000000000600052602260045260246000fd5b60006002820490506001821680614f4457607f821691505b602082108103614f5757614f56614efd565b5b50919050565b600081519050614f6c81614a06565b92915050565b600060208284031215614f8857614f87614994565b5b6000614f9684828501614f5d565b91505092915050565b60006dffffffffffffffffffffffffffff82169050919050565b614fc281614f9f565b8114614fcd57600080fd5b50565b600081519050614fdf81614fb9565b92915050565b600063ffffffff82169050919050565b614ffe81614fe5565b811461500957600080fd5b50565b60008151905061501b81614ff5565b92915050565b60008060006060848603121561503a57615039614994565b5b600061504886828701614fd0565b935050602061505986828701614fd0565b925050604061506a8682870161500c565b9150509250925092565b7f4f776e61626c653a2063616c6c6572206973206e6f7420746865206f776e6572600082015250565b60006150aa6020836148e3565b91506150b582615074565b602082019050919050565b600060208201905081810360008301526150d98161509d565b9050919050565b7f4e487b7100000000000000000000000000000000000000000000000000000000600052603260045260246000fd5b7f4f776e61626c653a206e6577206f776e657220697320746865207a65726f206160008201527f6464726573730000000000000000000000000000000000000000000000000000602082015250565b600061516b6026836148e3565b91506151768261510f565b604082019050919050565b6000602082019050818103600083015261519a8161515e565b9050919050565b7f45524332303a20617070726f76652066726f6d20746865207a65726f2061646460008201527f7265737300000000000000000000000000000000000000000000000000000000602082015250565b60006151fd6024836148e3565b9150615208826151a1565b604082019050919050565b6000602082019050818103600083015261522c816151f0565b9050919050565b7f45524332303a20617070726f766520746f20746865207a65726f20616464726560008201527f7373000000000000000000000000000000000000000000000000000000000000602082015250565b600061528f6022836148e3565b915061529a82615233565b604082019050919050565b600060208201905081810360008301526152be81615282565b9050919050565b7f45524332303a207472616e736665722066726f6d20746865207a65726f20616460008201527f6472657373000000000000000000000000000000000000000000000000000000602082015250565b60006153216025836148e3565b915061532c826152c5565b604082019050919050565b6000602082019050818103600083015261535081615314565b9050919050565b7f45524332303a207472616e7366657220746f20746865207a65726f206164647260008201527f6573730000000000000000000000000000000000000000000000000000000000602082015250565b60006153b36023836148e3565b91506153be82615357565b604082019050919050565b600060208201905081810360008301526153e2816153a6565b9050919050565b7f45524332303a207472616e7366657220746f207468652073616d65206164647260008201527f6573730000000000000000000000000000000000000000000000000000000000602082015250565b60006154456023836148e3565b9150615450826153e9565b604082019050919050565b6000602082019050818103600083015261547481615438565b9050919050565b7f737461727454696d650000000000000000000000000000000000000000000000600082015250565b60006154b16009836148e3565b91506154bc8261547b565b602082019050919050565b600060208201905081810360008301526154e0816154a4565b9050919050565b7f4e487b7100000000000000000000000000000000000000000000000000000000600052601160045260246000fd5b6000615521826149fc565b915061552c836149fc565b9250828203905081811115615544576155436154e7565b5b92915050565b6000615555826149fc565b9150615560836149fc565b925082820261556e816149fc565b91508282048414831517615585576155846154e7565b5b5092915050565b7f4e487b7100000000000000000000000000000000000000000000000000000000600052601260045260246000fd5b60006155c6826149fc565b91506155d1836149fc565b9250826155e1576155e061558c565b5b828204905092915050565b7f536166654d6174683a206d756c7469706c69636174696f6e206f766572666c6f60008201527f7700000000000000000000000000000000000000000000000000000000000000602082015250565b60006156486021836148e3565b9150615653826155ec565b604082019050919050565b600060208201905081810360008301526156778161563b565b9050919050565b6000615689826149fc565b9150615694836149fc565b92508282019050808211156156ac576156ab6154e7565b5b92915050565b7f536166654d6174683a206164646974696f6e206f766572666c6f770000000000600082015250565b60006156e8601b836148e3565b91506156f3826156b2565b602082019050919050565b60006020820190508181036000830152615717816156db565b9050919050565b7f616d6f756e74206572726f720000000000000000000000000000000000000000600082015250565b6000615754600c836148e3565b915061575f8261571e565b602082019050919050565b6000602082019050818103600083015261578381615747565b9050919050565b7f6265796f6e672062757920616d6f756e74000000000000000000000000000000600082015250565b60006157c06011836148e3565b91506157cb8261578a565b602082019050919050565b600060208201905081810360008301526157ef816157b3565b9050919050565b7f746f206572726f72000000000000000000000000000000000000000000000000600082015250565b600061582c6008836148e3565b9150615837826157f6565b602082019050919050565b6000602082019050818103600083015261585b8161581f565b9050919050565b7f627579416d6f756e740000000000000000000000000000000000000000000000600082015250565b60006158986009836148e3565b91506158a382615862565b602082019050919050565b600060208201905081810360008301526158c78161588b565b9050919050565b6000815190506158dd816149d0565b92915050565b6000602082840312156158f9576158f8614994565b5b6000615907848285016158ce565b91505092915050565b60006060820190506159256000830186614aa8565b6159326020830185614aa8565b61593f6040830184614aa8565b949350505050565b600060408201905061595c6000830185614c59565b6159696020830184614aa8565b9392505050565b60008151905061597f81614dcb565b92915050565b60006020828403121561599b5761599a614994565b5b60006159a984828501615970565b91505092915050565b6000819050919050565b60006159d76159d26159cd846159b2565b614ad2565b6149fc565b9050919050565b6159e7816159bc565b82525050565b600061010082019050615a03600083018b614c59565b615a10602083018a614c59565b615a1d6040830189614aa8565b615a2a6060830188614aa8565b615a3760808301876159de565b615a4460a08301866159de565b615a5160c0830185614c59565b615a5e60e0830184614aa8565b9998505050505050505050565b600080600060608486031215615a8457615a83614994565b5b6000615a9286828701614f5d565b9350506020615aa386828701614f5d565b9250506040615ab486828701614f5d565b915050925092509256fe45524332303a207472616e7366657220616d6f756e7420657863656564732062616c616e636545524332303a207472616e7366657220616d6f756e74206578636565647320616c6c6f77616e636545524332303a2064656372656173656420616c6c6f77616e63652062656c6f77207a65726fa26469706673582212205fb7a9bf4622db7cf25de572d8c82ff513d17fcbb2baace58b81f41455f993a764736f6c634300081b0033608060405234801561001057600080fd5b50604051610476380380610476833981810160405281019061003291906100db565b806000806101000a81548173ffffffffffffffffffffffffffffffffffffffff021916908373ffffffffffffffffffffffffffffffffffffffff16021790555050610108565b600080fd5b600073ffffffffffffffffffffffffffffffffffffffff82169050919050565b60006100a88261007d565b9050919050565b6100b88161009d565b81146100c357600080fd5b50565b6000815190506100d5816100af565b92915050565b6000602082840312156100f1576100f0610078565b5b60006100ff848285016100c6565b91505092915050565b61035f806101176000396000f3fe608060405234801561001057600080fd5b506004361061002b5760003560e01c80633ccfd60b14610030575b600080fd5b61003861004e565b60405161004591906101b9565b60405180910390f35b60008060008054906101000a900473ffffffffffffffffffffffffffffffffffffffff1673ffffffffffffffffffffffffffffffffffffffff166370a08231306040518263ffffffff1660e01b81526004016100aa9190610215565b602060405180830381865afa1580156100c7573d6000803e3d6000fd5b505050506040513d601f19601f820116820180604052508101906100eb919061026b565b905060008111156101965760008054906101000a900473ffffffffffffffffffffffffffffffffffffffff1673ffffffffffffffffffffffffffffffffffffffff1663a9059cbb33836040518363ffffffff1660e01b81526004016101519291906102a7565b6020604051808303816000875af1158015610170573d6000803e3d6000fd5b505050506040513d601f19601f8201168201806040525081019061019491906102fc565b505b600191505090565b60008115159050919050565b6101b38161019e565b82525050565b60006020820190506101ce60008301846101aa565b92915050565b600073ffffffffffffffffffffffffffffffffffffffff82169050919050565b60006101ff826101d4565b9050919050565b61020f816101f4565b82525050565b600060208201905061022a6000830184610206565b92915050565b600080fd5b6000819050919050565b61024881610235565b811461025357600080fd5b50565b6000815190506102658161023f565b92915050565b60006020828403121561028157610280610230565b5b600061028f84828501610256565b91505092915050565b6102a181610235565b82525050565b60006040820190506102bc6000830185610206565b6102c96020830184610298565b9392505050565b6102d98161019e565b81146102e457600080fd5b50565b6000815190506102f6816102d0565b92915050565b60006020828403121561031257610311610230565b5b6000610320848285016102e7565b9150509291505056fea26469706673582212202fba62fba3121b76afdd27fdb5a7ac002f463ec5e0de2b932c89ffb5c29294b264736f6c634300081b0033",
  "linkReferences": {},
  "deployedLinkReferences": {}
}