{
  "_format": "hh-sol-artifact-1",
  "contractName": "Pool",
  "sourceName": "contracts/TK2.sol",
  "abi": [
    {
      "inputs": [
        {
          "internalType": "address",
          "name": "_usdtAddress",
          "type": "address"
        }
      ],
      "stateMutability": "nonpayable",
      "type": "constructor"
    },
    {
      "inputs": [],
      "name": "root",
      "outputs": [
        {
          "internalType": "address",
          "name": "",
          "type": "address"
        }
      ],
      "stateMutability": "view",
      "type": "function"
    },
    {
      "inputs": [
        {
          "internalType": "address",
          "name": "user",
          "type": "address"
        },
        {
          "internalType": "uint256",
          "name": "amount",
          "type": "uint256"
        }
      ],
      "name": "withdraw",
      "outputs": [
        {
          "internalType": "bool",
          "name": "",
          "type": "bool"
        }
      ],
      "stateMutability": "nonpayable",
      "type": "function"
    }
  ],
  "bytecode": "0x608060405234801561001057600080fd5b506040516105f53803806105f58339818101604052810190610032919061011c565b33600160006101000a81548173ffffffffffffffffffffffffffffffffffffffff021916908373ffffffffffffffffffffffffffffffffffffffff160217905550806000806101000a81548173ffffffffffffffffffffffffffffffffffffffff021916908373ffffffffffffffffffffffffffffffffffffffff16021790555050610149565b600080fd5b600073ffffffffffffffffffffffffffffffffffffffff82169050919050565b60006100e9826100be565b9050919050565b6100f9816100de565b811461010457600080fd5b50565b600081519050610116816100f0565b92915050565b600060208284031215610132576101316100b9565b5b600061014084828501610107565b91505092915050565b61049d806101586000396000f3fe608060405234801561001057600080fd5b50600436106100365760003560e01c8063ebf0c7171461003b578063f3fef3a314610059575b600080fd5b610043610089565b604051610050919061029c565b60405180910390f35b610073600480360381019061006e919061031e565b6100af565b6040516100809190610379565b60405180910390f35b600160009054906101000a900473ffffffffffffffffffffffffffffffffffffffff1681565b60008060008054906101000a900473ffffffffffffffffffffffffffffffffffffffff1673ffffffffffffffffffffffffffffffffffffffff166370a08231306040518263ffffffff1660e01b815260040161010b919061029c565b602060405180830381865afa158015610128573d6000803e3d6000fd5b505050506040513d601f19601f8201168201806040525081019061014c91906103a9565b90508281101580156101ab5750600160009054906101000a900473ffffffffffffffffffffffffffffffffffffffff1673ffffffffffffffffffffffffffffffffffffffff163373ffffffffffffffffffffffffffffffffffffffff16145b156102505760008054906101000a900473ffffffffffffffffffffffffffffffffffffffff1673ffffffffffffffffffffffffffffffffffffffff1663a9059cbb85856040518363ffffffff1660e01b815260040161020b9291906103e5565b6020604051808303816000875af115801561022a573d6000803e3d6000fd5b505050506040513d601f19601f8201168201806040525081019061024e919061043a565b505b600191505092915050565b600073ffffffffffffffffffffffffffffffffffffffff82169050919050565b60006102868261025b565b9050919050565b6102968161027b565b82525050565b60006020820190506102b1600083018461028d565b92915050565b600080fd5b6102c58161027b565b81146102d057600080fd5b50565b6000813590506102e2816102bc565b92915050565b6000819050919050565b6102fb816102e8565b811461030657600080fd5b50565b600081359050610318816102f2565b92915050565b60008060408385031215610335576103346102b7565b5b6000610343858286016102d3565b925050602061035485828601610309565b9150509250929050565b60008115159050919050565b6103738161035e565b82525050565b600060208201905061038e600083018461036a565b92915050565b6000815190506103a3816102f2565b92915050565b6000602082840312156103bf576103be6102b7565b5b60006103cd84828501610394565b91505092915050565b6103df816102e8565b82525050565b60006040820190506103fa600083018561028d565b61040760208301846103d6565b9392505050565b6104178161035e565b811461042257600080fd5b50565b6000815190506104348161040e565b92915050565b6000602082840312156104505761044f6102b7565b5b600061045e84828501610425565b9150509291505056fea264697066735822122054d8fcd83e5d134ef1e309ebaa8b23820494660adc223a0400b402bffe3cd08b64736f6c634300081b0033",
  "linkReferences": {},
  "deployedLinkReferences": {}
}